:100000000C94DF000C9407010C9407010C94070179
:100010000C9407010C9407010C9407010C94070140
:100020000C9407010C9407010C9407010C94070130
:100030000C9407010C9407010C9407010C94070120
:100040000C94481C0C9407010C9407010C940701B4
:100050000C9407010C9407010C9407010C94070100
:100060000C94921C0C94070100407A10F35A00A0E3
:10007000724E18090010A5D4E80000E87648170071
:1000800000E40B54020000CA9A3B000000E1F505B1
:10009000000080969800000040420F000000A086FB
:1000A00001000000102700000000E803000000002D
:1000B0006400000000000A000000000001000000D1
:1000C00000002C76D888DC674F0823DFC1DFAE59EB
:1000D000E1B1B796E5E3E453C63AE651997696E87E
:1000E000E6C28426EB898C9B62ED407C6FFCEFBC02
:1000F0009C9F40F2BAA56FA5F490055A2AF75C932D
:100100006B6CF9676DC11BFCE0E40D47FEF520E662
:10011000B500D0ED902E0300943577050080841E45
:10012000080000204E0A000000C80C333333330FA0
:10013000986E12831141EF8D2114893BE65516CF3D
:10014000FEE6DB18D1844B381BF77C1D901DA4BB49
:10015000E424203284725E228100C9F124ECA1E5FE
:100160003D270000000023002600290000000000B9
:10017000240027002A0000000000250028002B0092
:10018000040404040404040402020202020203033D
:100190000303030301020408102040800102040845
:1001A00010200102040810200000000800020100D5
:1001B000000304070000000000000000B11D11242E
:1001C0001FBECFEFD8E0DEBFCDBF12E0A0E0B1E0B0
:1001D000E8ECFDE402C005900D92A031B107D9F71B
:1001E00025E0A0E1B2E001C01D92A23CB207E1F718
:1001F00010E0CFEDD0E004C02197FE010E9401265F
:10020000CE3DD107C9F70E94FC1D0C94E2260C9448
:100210000000833081F028F4813099F08230A9F019
:1002200008958730A9F08830C9F08430B1F4809106
:1002300080008F7D03C0809180008F778093800045
:10024000089584B58F7784BD089584B58F7DFBCFE5
:100250008091B0008F778093B00008958091B000B6
:100260008F7DF9CF1F93CF93DF93282F30E0F901D3
:10027000E855FE4F8491F901EC56FE4FD491F901F7
:10028000E058FE4FC491CC23A9F0162F81110E9493
:100290000901EC2FF0E0EE0FFF1FEA58FE4FA59189
:1002A000B4918FB7F894EC91111108C0D095DE236A
:1002B000DC938FBFDF91CF911F910895DE2BF8CF94
:1002C000CF93DF9390E0FC01EC56FE4F24918058D1
:1002D0009E4FFC0184918823D1F090E0880F991FF4
:1002E000FC01E459FE4FA591B491FC01EA58FE4F80
:1002F000C591D491623071F49FB7F8943C91822FEC
:10030000809583238C93E8812E2B28839FBFDF91D8
:10031000CF9108958FB7F894EC912E2B2C938FBF2B
:10032000F6CF3FB7F8948091F7029091F802A09130
:10033000F902B091FA0226B5A89B05C02F3F19F02B
:100340000196A11DB11D3FBFBA2FA92F982F882755
:10035000BC01CD01620F711D811D911D42E0660F30
:10036000771F881F991F4A95D1F708958F929F9202
:10037000AF92BF92CF92DF92EF92FF926B017C011E
:100380000E9491014B015C01C114D104E104F1040C
:10039000B9F00E949101681979098A099B09683EA0
:1003A00073408105910580F321E0C21AD108E1086C
:1003B000F10888EE880E83E0981EA11CB11CE4CFE2
:1003C000FF90EF90DF90CF90BF90AF909F908F9075
:1003D00008952FB7F8946091F3027091F402809120
:1003E000F5029091F6022FBF0895AF92BF92CF927F
:1003F000DF92EF92FF920F931F93CF93DF936C01E5
:100400007B018B01040F151FEB015E01AE18BF08C5
:10041000C017D10759F06991D601ED91FC91019077
:10042000F081E02DC6010995892B79F7C501DF918F
:10043000CF911F910F91FF90EF90DF90CF90BF90E1
:10044000AF900895FC01448155816081718187E0FE
:1004500093E00C94F50120918502260F3327331F7A
:1004600021323105ECF42091AB02FC0190E080E0F8
:10047000243069F082E00895A09185022191AC01B9
:100480004D595D4FA40FB52FB11D2C9301968617C2
:1004900098F380918502680F6093850280E008954B
:1004A00081E008951092AB0281E08093AD0210923A
:1004B000AC0261E082E10E94320161E083E10E94CE
:1004C0003201E9EBF0E080818E7F808380818D7F37
:1004D000808388E48093B80085E48093BC0008950D
:1004E000CF93DF9391E0909362028823B9F0C0919B
:1004F000B800D091BA008091BC008A7B8093BC0088
:1005000060E082E10E94320160E083E10E943201FA
:100510000E945202D093BA00C093B800DF91CF91ED
:100520000895089508950895E0915A02809159021E
:10053000E81730F4F0E0E75CFD4F808190E008952B
:100540008FEF9FEF089590915A02809159022FEFFB
:100550003FEF981748F4E92FF0E0E75CFD4F20816A
:1005600030E09F5F90935A02C9010895809159022B
:1005700090915A02891B990B0895CF92DF92EF92C6
:10058000FF920F931F93CF93DF937C01CB018A01DE
:1005900020913802222389F0EB016B01C40ED51E95
:1005A000CC15DD0569F06991D701ED91FC910190C1
:1005B000F081E02DC7010995F3CF642F0E942B0233
:1005C000C801DF91CF911F910F91FF90EF90DF90C5
:1005D000CF900895CF93DF931F92CDB7DEB7698395
:1005E000209138022223F9F020915B02203258F04A
:1005F00021E030E0FC013383228390E080E00F9023
:10060000DF91CF91089580915C02E82FF0E0E85EE1
:10061000FD4F998190838F5F80935C0280935B0292
:1006200081E090E0ECCF61E0CE0101960E942B02C8
:10063000F7CF8EBD00000DB407FEFDCF8EB5089537
:10064000FC01928183819CBD8DBD81E0878360E048
:1006500085810E9432018FEF0C9419038FEF0C9467
:100660001903CF93DF93EC010E94E901C60FD71F56
:100670000E942E038F3F59F00E94E901CE01861B94
:10068000970B97FFF5CF80E0DF91CF91089581E040
:10069000FBCFCF93DF93FC012781222349F0EC01AC
:1006A00061E085810E9432018FEF0E9419031F8251
:1006B000DF91CF9108951F93CF93DF93EC0188E5ED
:1006C00092E00E943103182F882361F08DEF0E9481
:1006D0001903CE010E9449031886812FDF91CF9123
:1006E0001F9108958FE18E83CE010E944903F5CFBB
:1006F0000F931F93CF93DF938C01862FEA010E9403
:100700001903FE0181918EBDDE5FEC17FD0741F0FC
:100710008191000000000DB407FEFDCF8EBDF5CF26
:100720000DB407FEFDCF8FEF0E9419038FEF0E94DB
:1007300019030E942E03F80181878F71853059F0CB
:1007400081E28683C8010E94490380E0DF91CF9156
:100750001F910F91089581E0F9CFDF92EF92FF9200
:100760000F931F93CF93DF93EC01162F022FF32EDD
:10077000E42ED52E0E94C6068823D1F18F818111E7
:1007800003C0CE010E94200311112AC0812F806472
:100790000E9419038D2D0E9419038E2D0E941903AA
:1007A0008F2D0E941903802F0E94190387E81111D1
:1007B00001C085E90E9419030E942E030AE010E09F
:1007C0000E942E03898787FF03C001501109C1F7DA
:1007D000DF91CF911F910F91FF90EF90DF900895DF
:1007E0001C30A1F28CE291E00E9431038111CECF46
:1007F0008FEFEECFAF92BF92CF92DF92EF92FF9248
:100800001F93CF93DF93EC016A017B0159011F8590
:10081000112309F45EC08885823049F48B859C855C
:10082000AD85BE85C816D906EA06FB0649F18A855C
:10083000A7019601833039F099E0220F331F441F3E
:10084000551F9A95D1F769E1CE010E94AD03882327
:1008500089F08EE08E83CE010E94490310E0812F43
:10086000DF91CF911F91FF90EF90DF90CF90BF90DD
:10087000AF90089582E08887CB86DC86ED86FE8681
:1008800088E592E00E943103811102C085E2E2CF47
:10089000A5016CEFCE010E9478038823E1F28B85DD
:1008A0009C85AD85BE850196A11DB11D8B879C875A
:1008B000AD87BE871F851111D2CFCE01DF91CF91B9
:1008C0001F91FF90EF90DF90CF90BF90AF900C946E
:1008D0005B038A85833039F089E0CC0CDD1CEE1C8B
:1008E000FF1C8A95D1F7A701960168E1CE010E940D
:1008F000AD03882331F08DE08E83CE010E94490341
:10090000AECFA5016EEFCE010E9478038823A9F334
:1009100088E592E00E943103F82E84E2FF2061F323
:1009200020E030E0A9016DE0CE010E94AD038823F4
:1009300011F08AE0E1CF0E942E038111FACFCE019F
:100940000E9449031F2D8BCFEF92FF921F93CF93ED
:10095000DF93FC01208111E020FF12C0EC017C013B
:10096000FBE0EF0EF11C4F81588569857A85970170
:1009700089819A810E94FA03182F811108C010E022
:10098000812FDF91CF911F91FF90EF900895888183
:1009900081FD04C088818E7F8883F2CF4F81588586
:1009A00069857A858B819C81AD81BE81480F591FF5
:1009B0006A1F7B1F970189819A810E94FA03811126
:1009C000E9CFDDCFCF93DF93EC01188620E030E054
:1009D000A9016CE00E94AD03882349F089E08E8371
:1009E000CE010E94490380E0DF91CF910895CE01AE
:1009F0000E94490381E0F8CFCF92DF92EF92FF92FD
:100A00000F931F93CF93DF93EC016A017B01890160
:100A10008885813049F48B859C85AD85BE858C1594
:100A20009D05AE05BF0539F18A85A7019601833082
:100A300039F089E0220F331F441F551F8A95D1F7E3
:100A400062E1CE010E94AD03882379F08CE08E83B1
:100A5000CE010E94490380E0DF91CF911F910F9159
:100A6000FF90EF90DF90CF90089581E08887CB864C
:100A7000DC86ED86FE860E94E9017B0124EDE21A08
:100A80002EEFF20A0E942E0389878F3F49F40E94BD
:100A9000E901C701861B970B97FFF4CF8EE1D7CFF3
:100AA0008E3F11F089E1D3CF8FEF8EBDF801D801D1
:100AB000A150BE4F9FEFEA17FB0749F0000000006E
:100AC0000DB407FEFDCF8EB59EBD8193F4CF0DB45E
:100AD00007FEFDCF8EB58C9319860E942E030E94CF
:100AE0002E038B859C85AD85BE850196A11DB11D0C
:100AF0008B879C87AD87BE878F858111ADCFCE0157
:100B0000DF91CF911F910F91FF90EF90DF90CF90E9
:100B10000C94E204CF92DF92EF92FF921F93CF9357
:100B2000DF93DC011196ED91FC91EF2B51F490E0F5
:100B300080E0DF91CF911F91FF90EF90DF90CF90F9
:100B40000895122F6A017B01EC018F819885A98598
:100B5000BA858C159D05AE05BF0561F0CE010E94DA
:100B6000A404882321F312FF0CC01882CF82D886F8
:100B7000E986FA8613702881122B1883CE010B9612
:100B8000D8CF9E01255F3F4FB701A60189819A8189
:100B90000E94FC048111E9CFCACF2F923F924F925D
:100BA0005F926F927F928F929F92AF92BF92CF92FD
:100BB000DF92EF92FF921F93CF93DF93CDB7DEB713
:100BC0002A970FB6F894DEBF0FBECDBF9A878987EC
:100BD00049835A836B837C836A017B0122E0C21ABA
:100BE000D108E108F108452B462B472B41F4E98554
:100BF000FA85E55FFD4FC080D180E280F380898572
:100C00009A85855E9D4F98878F83FC0180819181B5
:100C1000A281B381C816D906EA06FB0618F0C12CDA
:100C2000D12C7601D701C60143E0B695A7959795DB
:100C300087954A95D1F71C01F1E03F2211E0C601EA
:100C40008770992701C0110F8A95EAF726013701AD
:100C50004601570129853A85295E3D4F3E832D8304
:100C6000ED81FE8180819181A281B381B501A401D2
:100C70003CE076956795579547953A95D1F7480F9B
:100C8000591F6A1F7B1F20E089859A850E948A056B
:100C9000009709F472C0FC01E20DF31D2081FFEF03
:100CA0008F1A9F0AAF0ABF0A322F3123D1F5B5013F
:100CB000A4014419550966097709413051056105B8
:100CC000710589F589819A81AB81BC81892B8A2B39
:100CD0008B2B49F4A985BA85A55FBD4FFD014082E4
:100CE000518262827382C301B2016E5F7F4F8F4F68
:100CF0009F4F2A960FB6F894DEBF0FBECDBFDF918F
:100D0000CF911F91FF90EF90DF90CF90BF90AF9069
:100D10009F908F907F906F905F904F903F902F901B
:100D2000089524013501C814D904EA04FB0449F1EB
:100D3000AF81B8854D915D916D917C91841695063A
:100D4000A606B70680F4110F09F0A9CF91012F5F15
:100D50003F4F312C212C11E02115B2E03B0708F068
:100D60007FCF190198CF212C22E0322E412C512C1B
:100D70003201812C912C5401E9CF60E070E0CB016D
:100D8000B8CF61E070E080E090E0B3CFFC01208557
:100D9000223011F40C945B03213011F40C94E20422
:100DA00081E008958F929F92AF92BF92CF92DF928F
:100DB000EF92FF920F931F93423051056105710529
:100DC00060F480E01F910F91FF90EF90DF90CF9043
:100DD000BF90AF909F908F900895FC01E55EFD4F0E
:100DE000C080D180E280F380EFEFCE1ADE0AEE0AF7
:100DF000FE0AC416D506E606F70618F3480159019F
:100E00006A01FC01E15FFD4F37E0769567955795E4
:100E100047953A95D1F70081118122813381400FA6
:100E2000511F621F731F21E00E948A05009749F23B
:100E3000CC0CDD1CCC0CDD1CF1E0DF22C80ED91E71
:100E4000F60180829182A282B38281E0BBCFCF92F1
:100E5000DF92EF92FF920F931F93CF93DF93E901FD
:100E6000FC01E55EFD4F00811181228133810F5F1E
:100E70001F4F2F4F3F4F041715072607370750F412
:100E80008FEFDF91CF911F910F91FF90EF90DF9047
:100E9000CF9008956A01FC01E15FFD4F37E0769540
:100EA0006795579547953A95D1F700811181228131
:100EB0003381400F511F621F731F20E00E948A057B
:100EC0000097F1F2CC0CDD1CCC0CDD1C21E0D22211
:100ED000C80ED91EF60180819181A281B3818F3F16
:100EE000FFEF9F07AF07BF0731F088839983AA837D
:100EF000BB8381E0C6CF80E0C4CF0F931F93CF9315
:100F0000DF93EB01E42FDC01AD5DBD4F4D915D91B1
:100F10006D917C9113970C811D812E813F8140231F
:100F200051236223732329E076956795579547955A
:100F30002A95D1F7088119812A813B810250110934
:100F4000210931091B96FC9104C0000F111F221FBB
:100F5000331FFA95D2F7400F511F621F731F579727
:100F60000D911D912D913C91400F511F621F731FD8
:100F70002E2F0E948A05009729F02C813D81317027
:100F8000820F931FDF91CF911F910F9108954F9280
:100F90005F926F927F928F929F92AF92BF92CF9209
:100FA000DF92EF920F931F93CF93DF936C01480171
:100FB0005901DB01CA010297A109B109AC01BD01C8
:100FC000480D591D6A1D7B1DF601E55EFD4F008130
:100FD000118122813381041715072607370708F48A
:100FE0007FC070974080518062807380EE2009F44A
:100FF0006CC0481659066A067B0688F044165506EA
:101000006606770660F4401751076207730718F009
:1010100040E050E0BA0140835183628373839C01B6
:101020002770332711E001C0110F2A95EAF72C0130
:101030003D012CE076946794579447942A95D1F714
:10104000F601E95EFD4F4081518162817381440D5B
:10105000551D661D771D33E0B695A7959795879525
:101060003A95D1F7EC01D1702A013B012FEF421ADA
:10107000520A620A720A21E0C6010E948A0500979C
:1010800079F1FC01EC0FFD1FA12F2081422F4A2393
:1010900031E009F430E03E1519F12A272083B1E050
:1010A0008B1A9108A108B10861F1AA0F71F7319666
:1010B000B301A201D0E0C0E011E0A1E09F01281B34
:1010C000390B2115324009F7CFCF84159505A605B8
:1010D000B70508F0A4CF80839183A283B3839FCF09
:1010E00080E0DF91CF911F910F91EF90DF90CF9033
:1010F000BF90AF909F908F907F906F905F904F9038
:10110000089581E0EECF4F925F926F927F928F921F
:101110009F92AF92BF92EF92FF920F931F93CF9344
:10112000DF93EC0188A199A1488D598D6A8D7B8D43
:101130004115510561057105F9F04F5F5F4F6F4F24
:101140007F4F0E94CD054B015C0122E08216910485
:10115000A104B104A8F4F12C8F2DDF91CF911F9140
:101160000F91FF90EF90BF90AF909F908F907F90E6
:101170006F905F904F90089540E050E0BA01E1CF4A
:10118000EE24E39401E010E020E030E0BC01A40193
:1011900088A199A10E94C707F82E8823E1F2488D03
:1011A000598D6A8D7B8D8EA541155105610571059F
:1011B00039F480648EA7888E998EAA8EBB8ECCCF90
:1011C00086FF2AC04F5F5F4F6F4F7F4F481559050D
:1011D0006A057B0581F38F7B8EA74C8D5D8D6E8DAF
:1011E0007F8D88A199A1488C598C6A8C7B8C441581
:1011F00055056605770580F42A013B012FEF421A59
:10120000520A620A720A930182010E94D206B30155
:10121000A2018111E6CF9FCF0FEF1FEF9801B5011B
:10122000A40188A199A10E94D206882309F493CF32
:10123000488D598D6A8D7B8D41155105610571056C
:1012400009F4B9CF9501840188A199A10E94D20621
:101250008111B1CF80CFCF93DF93EC010E94A40422
:10126000882341F0C55DDD4F88819981DF91CF9161
:101270000C94C60680E0DF91CF9108952F923F92A3
:101280004F925F926F927F928F929F92AF92BF9296
:10129000CF92DF92EF92FF920F931F93CF93DF9342
:1012A000CDB7DEB762970FB6F894DEBF0FBECDBFE5
:1012B000988B8F874801222E3D834E83352E2B013C
:1012C000DC0158962D913D914D915C915B972B8758
:1012D0003C874D875E879C96BC91BF83BB2309F4F6
:1012E000E3C0FC01F081F887DC011196BC91B9875D
:1012F000FC01F281FA87DC0113966C901397149627
:101300007C9014971596BC91FC01F681F98BFC0139
:10131000F781FA8B288539854A85562D672D7B2FD5
:1013200089899F2F5801C22CDD80EE80F32C820129
:101330000E94EC25F1F09401422D5D2D6E2D732D50
:10134000C201A0E00E94F525B1F4AF85B889589696
:101350001D921D921D921C925B97EF85F8898082E9
:10136000918222822D8123833E813483358246827D
:10137000578281E0A4C0EF81E3FF10C0EF85F889B8
:101380002089318942895389648975898689978939
:10139000DD80EE800E94EC2508F486C0EF85F88998
:1013A000A0A0B1A0C501825D9D4FFC011081175F17
:1013B0009401422D5D816E81732DC201AFEF0E94B9
:1013C000D725012F0E94B325942F852FA901692FBE
:1013D000782F69017B01EF85F88986A586FF0DC00E
:1013E000848D958DA68DB78D840F951FA61FB71F71
:1013F000808F918FA28FB38FB0CF288539854A8592
:10140000562D672D7B2F89899A89AFEF0E94D725AA
:101410000E94B32529833A834B835C8329813A81D7
:101420004B815C81C216D306E406F50668F0288578
:1014300039854A85562D672D7B2F89899A89A0E0A9
:101440000E94F52509F05BC0BF81B6FF51C0F501D0
:10145000E15EFD4F80819181A281B381EF85F889A2
:10146000808F918FA28FB38F6F84788838E1630E5D
:10147000711CC114D104E104F10409F46ECFAF85ED
:10148000B88958964D915D916D917C915B979301D0
:1014900090968D919C910E942707B1E0CB1AD108BC
:1014A000E108F10818162CF38B859C85AD85BE8567
:1014B000EF85F889808F918FA28FB38F80E062963D
:1014C0000FB6F894DEBF0FBECDBFDF91CF911F9155
:1014D0000F91FF90EF90DF90CF90BF90AF909F90D3
:1014E0008F907F906F905F904F903F902F900895D6
:1014F000EF85F889848D958DA68DB78DAFCF298125
:101500003A814B815C81C21AD30AE40AF50AACCF56
:101510009F92AF92BF92CF92DF92EF92FF920F9382
:101520001F93CF93DF93CDB7DEB729970FB6F8940B
:10153000DEBF0FBECDBF8C01942E89E0F801B296BC
:10154000DE01119601900D928A95E1F7F801A0A0B5
:10155000B1A0F0E26F9FC0011124B0E0A0E04D8186
:101560005E816F817885F501ED5DFD4FC080D18092
:10157000E280F380C422D522E622F722C80ED91ECB
:10158000EA1EFB1E840F951FA61FB71F8D839E8327
:10159000AF83B8873B968081875F04C0F694E79459
:1015A000D794C7948A95D2F7C114D104E104F10409
:1015B00089F149815A816B817C818985882371F009
:1015C0004F5F5F4F6F4F7F4F49835A836B837C839D
:1015D00021E0C21AD108E108F108E6CF9E012F5F91
:1015E0003F4FC5010E942707813091F390E080E0D2
:1015F00029960FB6F894DEBF0FBECDBFDF91CF9115
:101600001F910F91FF90EF90DF90CF90BF90AF9020
:101610009F900895492DBE016F5F7F4FF80180A113
:1016200091A10E947D07E4CFFF920F931F93CF9368
:10163000DF93FC0124A5211107C081E0DF91CF9148
:101640001F910F91FF900895EC0186A587FF8AC036
:101650008F7786A7F12C10E000E08BA58F1508F49A
:1016600069C040E06F2DCE010E94880AFC01892BE1
:1016700009F473C08081803C61F1813C69F0853858
:1016800009F06BC08CA5877390E095838483A8A133
:10169000B9A18C9181608C93408190E080E000FB47
:1016A0001795079517F9DF01A80FB91F2C91020FA5
:1016B000111D8130910521F423E030E0453811F00F
:1016C00021E030E0820F931F8032910540F3F394C4
:1016D000C4CF81819EA596FF2BC0826081837889CB
:1016E00069895A894B893C892D899E898F897087A0
:1016F00061875287438734872587968787878C8DB4
:101700009D8DAE8DBF8D848B958BA68BB78B788589
:1017100069855A854B853C852D859E858F85708F83
:10172000618F528F438F348F258F968F878FAFCFE6
:101730008D7FD4CF41E0BE016E5D7F4F88A199A11E
:101740000E947D07009749F0FC011383028388A162
:1017500099A10E942B09811170CF8DA581608DA761
:1017600080E06CCF80A191A10E942B09811165CFEF
:101770009DA591609DA762CFCF92DF92EF92FF92DD
:101780000F931F93CF93DF93FC01C48121E020933B
:101790003802C093170210925C0210925B0283859C
:1017A000682B8BEF92E00E94EA02D0915B02D1326B
:1017B00008F092C00E9491016B017C018091AB0204
:1017C000811165C082E08093AB0281E08093AD021D
:1017D0008FEF8093AA021092CF02D093CE02A8E19D
:1017E000B2E0EEEAF2E080E0D81385C01092D002B9
:1017F0008091D002CC0FC82BC093D0028091AC0254
:10180000813009F07CC01092AC020E9491016B0102
:101810007C018091D0028093BB0080915E02909108
:101820005F02A0916002B0916102892B8A2B8B2B01
:1018300099F00E94910100915E0210915F02209147
:101840006002309161026C197D098E099F090617AB
:10185000170728073907E0F18091BC0083FDD9CF35
:1018600085EC8093BC000E9491016B017C0180910A
:10187000AB02823009F445C08091AA028F3F61F12A
:101880008091AA02803241F18091AA0225C0809104
:101890005E0290915F02A0916002B0916102892B7B
:1018A0008A2B8B2B09F48ACF0E94910100915E0252
:1018B00010915F0220916002309161026C197D09E4
:1018C0008E099F09061717072807390708F076CFF2
:1018D00080915D020E94700210925C0210925B0285
:1018E00010923802DF91CF911F910F91FF90EF90EE
:1018F000DF90CF9008959D9191938F5F75CF85EE86
:10190000B0CF80915E0290915F02A0916002B09191
:101910006102892B8A2B8B2B09F4A9CF0E9491019C
:1019200000915E0210915F0220916002309161028D
:101930006C197D098E099F090617170728073907B3
:1019400008F095CFC5CF88E08093120360E087E070
:1019500093E00C94BC0B0895AF92BF92CF92DF92AC
:10196000EF92FF920F931F93FC0180AD83FF2BC07A
:10197000248D358D468D578D60A171A182A193A1D3
:10198000A484B584C684D784E088F1880289138949
:101990000E94E325F22FE32F2F3F3F4741055105DA
:1019A000610571058105910519F010F0FFEFEFE772
:1019B0008F2F9E2F1F910F91FF90EF90DF90CF9070
:1019C000BF90AF90089520E030E040E050E060E04C
:1019D00070E080E090E0DECF0C960C94140B90E069
:1019E00080E008956115710579F0FB0101900020F8
:1019F000E9F73197AF01461B570BDC01ED91FC91E4
:101A00000280F381E02D099490E080E008950F9327
:101A10001F93CF93DF93EC0188819981009759F050
:101A20002A813B812617370730F081E0DF91CF9183
:101A30001F910F9108958B016F5F7F4F0E940726C2
:101A4000009759F0998388831B830A832C813D81F9
:101A5000232B59F7FC011082E8CF80E0E7CFEF920B
:101A6000FF920F931F93CF93DF936115710541F49C
:101A700080E0DF91CF911F910F91FF90EF9008953B
:101A800041155105B1F07B01EC010C811D81040F62
:101A9000151FB8010E94070D882351F32881398151
:101AA0008C819D81B701820F931F0E94CD261D83DB
:101AB0000C8381E0DECFCF93DF93EC0188819981A5
:101AC000009711F00E945B20198218821D821C82EF
:101AD0001B821A82DF91CF910895CF93DF93EC019F
:101AE000FB0101900020E9F73197AF01461B570B2E
:101AF0000E942F0D811103C0CE010E945B0DCE010B
:101B0000DF91CF910895CF93DF93EC01FB014481E6
:101B10005581608171810E942F0D811103C0CE011A
:101B20000E945B0DCE01DF91CF910895EF92FF925D
:101B30000F931F93CF93DF93EC017B018A01BA01CE
:101B40000E94070D81110BC0CE010E945B0DCE01DA
:101B5000DF91CF911F910F91FF90EF9008951D831A
:101B60000C83B701888199810E94CD26F0CFEF9236
:101B7000FF920F931F93CF93DF93CDB7DEB7A1975B
:101B80000FB6F894DEBF0FBECDBF8C01CB01BA01FA
:101B9000F8011182108213821282158214822AE0C7
:101BA000AE014F5F5F4F7A010E948821F7010190DB
:101BB0000020E9F73197AF014E195F09B701C8015D
:101BC0000E94960DA1960FB6F894DEBF0FBECDBF52
:101BD000DF91CF911F910F91FF90EF900895FB013E
:101BE00001900020E9F73197AF01461B570B0C9489
:101BF000960DFC0180819181009711F00C945B207F
:101C0000089585ED8093BC0080915E0290915F0203
:101C1000A0916002B09161020796A11DB11D23E061
:101C2000B695A795979587952A95D1F72091BC00F1
:101C300024FD03C01092AB02089540915E025091C2
:101C40005F026091600270916102452B462B472B29
:101C500069F30097A105B10541F02AE22A95F1F751
:101C600000C00197A109B109E1CF80915D020C94F8
:101C700070022F923F924F925F926F927F928F925B
:101C80009F92AF92BF92CF92DF92EF92FF920F930B
:101C90001F93CF93DF93CDB7DEB762970FB6F8945B
:101CA000DEBF0FBECDBF9A8B898B7C876B874D873C
:101CB0005E87DC019E968C9181FF1EC183FDFDC075
:101CC0002D843E84E989FA897896F88BEF87E98933
:101CD000FA89F081F983A989BA891196BC91BA83EE
:101CE000E989FA89F281FB83A989BA891396BC91A3
:101CF000BC83E989FA89F481FD83A989BA8915969B
:101D0000BC91BE83E989FA89F681FF83A989BA89E2
:101D10001796BC91B8872114310409F4E1C1A9894F
:101D2000BA899096ED91FC91DF01AD5DBD4F8D902C
:101D30009D90AD90BC9089819A81AB81BC818822B5
:101D40009922AA22BB22D401B170BA87A987811433
:101D50009104A104B10409F056C0A989BA89589622
:101D60004D905D906D907C905B974114510461049F
:101D7000710409F4EAC09E968C919E9786FFD5C0A7
:101D80005C96CD90DD90ED90FC905F9718962C912D
:101D9000189719963C9119971A964C911A971B9679
:101DA0005C911B971C966C911C971D967C911D97BE
:101DB0001E968C911E971F969C91AFEF0E94D7257F
:101DC000E25DFD4F0081075F0E94B32529833A83BE
:101DD0004B835C836D837E838F83988789819A810F
:101DE000AB81BC81C80ED91EEA1EFB1E4C145D04DB
:101DF0006E047F0408F48BC089899A890E94830845
:101E0000882309F479C0A989BA899096ED91FC914B
:101E1000919758964D905D906D907C905B97B2E055
:101E20004B1A510861087108DF01A25DBD4F8C910A
:101E300004C0440C551C661C771C8A95D2F799E0A7
:101E4000B694A794979487949A95D1F7480C591C07
:101E50006A1C7B1C57978D919D910D90BC91A02D74
:101E6000480E591E6A1E7B1E29853A85232B09F0D0
:101E70008DC0211432E0330608F488C08781908534
:101E8000A185B285481659066A067B0641F4108280
:101E90008FEF9FEFDC0187839087A187B2872B8527
:101EA0003C85B301A201818192810E94FA038823BB
:101EB00019F1812C82E0982ECFC0A989BA89509659
:101EC0000C91509751961C91519752962C91529784
:101ED00053963C91539754964C91549755965C91D8
:101EE000559756966C91569757967C915797CD017A
:101EF0000E943E098111E4CEA989BA899D968C91F0
:101F00009D9781609D968C931D861E8609C19FEFCB
:101F1000491A590A690A790AA989BA8958964D92C3
:101F20005D926D927C925B976ECF2F853889B3015D
:101F3000A201CF010E942707082E000C990B97FDE4
:101F4000DBCF892B09F458CF5ECFE989FA89848DDC
:101F5000958DA68DB78D0097A105B10581F4CF01B0
:101F60000E948308882341F2E989FA89808D918D46
:101F7000A28DB38D848F958FA68FB78F44CFE989BB
:101F8000FA89808F918FA28FB38F3DCF80E092E04E
:101F9000A985BA858A1B9B0B41018215930508F41C
:101FA0004C0129853A85232B09F098C0A989BA8963
:101FB0002C9111963C91119712964C911297139671
:101FC0005C91139714966C91149715967C911597C4
:101FD0005096AC9050975196BC9051975296CC9099
:101FE00052975396DC9053975496EC90549755968D
:101FF000FC90559756960C91569757961C9157976B
:1020000016968C91169717969C910E94EC2508F4D1
:1020100065C025E0B301A201CF010E948A050097A7
:1020200009F46ACFA4016B857C85E985FA858E0F5A
:102030009F1F0E94C42689859A85880D991D811548
:10204000924051F4A989BA8990968D919C910E94F1
:10205000A404882309F450CF940140E050E060E0EC
:1020600070E080E090E0E989FA89A080B180C280C8
:10207000D380E480F580068117810E94CE25290156
:102080003A018983998720835182428373826483D2
:102090007583868397832B853C85280D391D3C8766
:1020A0002B8728183908A088B188C288D388E4888B
:1020B000F5880689178992010E94EC2509F008F439
:1020C00006CE86A5806886A7408A518A428B738A8D
:1020D000648B758BA981A68B978BF9CD21E09ACF64
:1020E000E989FA892085318542855385648575851E
:1020F00086859785A980BA80CB80DC80ED80FE80C4
:102100000F8118850E94EC2558F4A086B186C286FE
:10211000D386E486F5860687178786A5806886A716
:102120008D859E8562960FB6F894DEBF0FBECDBF3B
:10213000DF91CF911F910F91FF90EF90DF90CF90A3
:10214000BF90AF909F908F907F906F905F904F90D7
:102150003F902F9008950C960C94390ECF93DF93F7
:102160001F92CDB7DEB7698341E050E0BE016F5FDB
:102170007F4F0C960E94390E0F90DF91CF910895FA
:102180002F923F924F925F926F927F928F929F9287
:10219000AF92BF92CF92DF92EF92FF920F931F9375
:1021A000CF93DF93CDB7DEB72E970FB6F894DEBF8F
:1021B0000FBECDBF9E878D877A8769875C874B87E7
:1021C000DC019E968C919E9780FF3CC186FD04C0E9
:1021D0009C968C9183FF4FC0ED85FE85F081F9833D
:1021E000AD85BE851196BC91BA83ED85FE85F281E1
:1021F000FB83AD85BE851396BC91BC83ED85FE85C2
:10220000F481FD83AD85BE851596BC91BE83ED85B9
:10221000FE85F681FF83AD85BE851796BC91B88794
:10222000ED85FE85208831884288538864887588CA
:10223000868897882B853C8540E050E060E070E020
:1022400080E090E0A980BA80CB80DC80ED80FE80C9
:102250000F8118850E94CE2551016201730184010E
:102260000E94EC2541F038F0C101A981BA818A1B96
:102270009B0B9C878B878B849C842D843E84B8E148
:102280002B0E311C412C32E0532E8114910409F4A1
:1022900035C1ED85FE85F081F983AD85BE8511964A
:1022A000BC91BA83ED85FE85F281FB83AD85BE8549
:1022B0001396BC91BC83ED85FE85F481FD83AD85CD
:1022C000BE851596BC91BE83ED85FE85F681FF83A4
:1022D000AD85BE851796BC91B887AD85BE859096B5
:1022E000ED91FC91DF01AD5DBD4FCD90DD90ED90A6
:1022F000FC9089819A81AB81BC81C822D922EA22D3
:10230000FB2286011170C114D104E104F104F9F437
:1023100029813A814B815C816D817E818F81988595
:10232000A0E00E94F52509F067C0AD85BE859C96AA
:102330008C9186FF5AC0E15EFD4F80819181A28120
:10234000B381ED85FE85808F918FA28FB38FED8550
:10235000FE8580A191A1408D518D628D738D42507B
:10236000510961097109FC01E25DFD4F208104C042
:10237000440F551F661F771F2A95D2F729E0F69460
:10238000E794D794C7942A95D1F74C0D5D1D6E1D27
:102390007F1D7797C080D180E280F3804C0D5D1D5A
:1023A0006E1D7F1D0115110509F054C08114F2E066
:1023B0009F0608F44FC0DC011796CD90DD90ED909C
:1023C000FC901A974C155D056E057F0509F442C017
:1023D00029853A8511968D919C910E94FC04882351
:1023E00089F1612C82E0782E4AC0ED85FE85848DCE
:1023F000958DA68DB78DA5CFAD85BE8558964D918F
:102400005D916D917C915B979E968C919E9786FFD6
:102410000AC04F5F5F4F6F4F7F4FFD01408F518F5D
:10242000628F738F94CF9101CF010E94270787FDA0
:1024300009C081118CCFAD85BE859C968C9180752D
:1024400009F05CC0ED85FE8585A5826085A78FEFCC
:102450009FEF58C09201201B310B3401281539051C
:1024600008F4390120E00E948A05009759F3BC0165
:10247000600F711FA30189859A850E94C426E98592
:10248000FA85E60DF71DFA87E987930140E050E0F1
:1024900060E070E080E090E0AD85BE85AC90119684
:1024A000BC9011971296CC9012971396DC901397CC
:1024B0001496EC9014971596FC90159716960C911F
:1024C000169717961C9117970E94CE252C9311965C
:1024D0003C93119712964C93129713965C93139713
:1024E00014966C93149715967C93159716968C9367
:1024F000169717969C9386189708C7CE8B859C8550
:10250000881999092E960FB6F894DEBF0FBECDBF7D
:10251000DF91CF911F910F91FF90EF90DF90CF90BF
:10252000BF90AF909F908F907F906F905F904F90F3
:102530003F902F9008954F925F926F927F928F926B
:102540009F92AF92BF92CF92DF92EF92FF920F9342
:102550001F93CF93DF931F92CDB7DEB78C01FC01A1
:10256000448455846684778480889188A288B3885F
:10257000C4A0D5A0E6A0F7A041E050E0BE016F5F87
:102580007F4F0C960E94C010019709F5898190E059
:10259000F8014486558666867786808A918AA28A63
:1025A000B38AC4A2D5A2E6A2F7A20F90DF91CF9181
:1025B0001F910F91FF90EF90DF90CF90BF90AF9061
:1025C0009F908F907F906F905F904F9008958FEFC6
:1025D0009FEFDECFCF93DF931F92CDB7DEB741E001
:1025E00050E0BE016F5F7F4F0C960E94C0100197B4
:1025F00031F4898190E00F90DF91CF9108958FEFB2
:102600009FEFF9CF2F923F924F925F926F927F92FE
:102610008F929F92AF92BF92CF92DF92EF92FF92F2
:102620000F931F93CF93DF93CDB7DEB7E6970FB627
:10263000F894DEBF0FBECDBF3C014B011A01E22E64
:10264000DC019C968C9181110DC0FB0184A58075E5
:1026500049F0822F8370813009F462C040F08230EB
:1026600009F45BC0F30114A616A6F12C31C1F1E008
:10267000FDA3D10116968D919C910E966FE070E0AE
:102680000E949D256EA752E0452E460E00E010E008
:1026900020E030E040E050E060E070E0C4010E94E3
:1026A0003E09F12C512C6E01B1E2CB0ED11CBDA024
:1026B0006894B6F86FE2A62E40E250E0BE016F5F6C
:1026C0007F4FC4010E94C010009709F458C1809741
:1026D00049F6898187FD27C0511017C0F401408158
:1026E0005181628173818A019B0100521109210984
:1026F00031090AA71BA72CA73DA7208D318D428D3C
:10270000538D2EA33FA348A759A7541408F45394FC
:10271000882309F434C1F12CCFCF03E00DA3A9CF56
:1027200012E01DA3A6CFF11043C0541408F4512C9D
:10273000853811F6F3010A2D11920A95E9F78A817D
:10274000D3019B968C939B979D81892F877394FFD0
:102750002BC09C968C93D40190968D919C919197CF
:10276000F30191A380A358968D919D910D90BC91FA
:10277000A02D82A393A3A4A3B5A3F401808191818A
:10278000A281B3818097A109B109F30186A397A320
:10279000A0A7B1A7D4019E968C9186FB882780F9CB
:1027A00082A7FF24F39488CF8860F30184A7D3CF56
:1027B000803C09F05CC00DA1F30106A78A8181FD70
:1027C000B6A68985D30150968C9350978A855196E9
:1027D0008C9351978B8552968C9352978C855396F8
:1027E0008C9353978D8554968C9354978E855596DC
:1027F0008C9355978F8556968C93569788895796C4
:102800008C938D899E89AF89B88DF301848F958FC4
:10281000A68FB78F898D80878A8D81878B8D8287E0
:102820008C8D83878D8D84878E8D85878F8D868710
:1028300088A18787D1018D919C91119713969C93C4
:102840008E9312972C8116968D919C91179728172D
:10285000190609F060CFFF24F39418962D913C914E
:102860008D819E812817390709F055CF25CF813CEE
:1028700009F051CFF10124813581BE016D5F7F4F99
:10288000DB018D919D91BD01F101A281B381A21760
:10289000B307C1F5892B09F03ECFD10112968D9176
:1028A0009C918217930709F007CF8E2D847221F433
:1028B000F30186A581FF06C0D3019C968C9181719E
:1028C00009F0D0CEE2FC39C0F30186A581FD53C0EA
:1028D0008F2DE6960FB6F894DEBF0FBECDBFDF9109
:1028E000CF911F910F91FF90EF90DF90CF90BF900D
:1028F000AF909F908F907F906F905F904F903F90A0
:102900002F900895AD014F5F5F4F538342834C91E9
:102910008F37910508F0FFCE5FE9540F5A3108F464
:1029200040525FE9580F5A3108F480528413F3CEB5
:102930006C157D0509F0A4CFB0CFD30150960C9152
:10294000509751961C91519752962C9152975396AD
:102950003C91539754964C91549755965C9155974A
:1029600056966C91569757967C91C3010E943E09EA
:102970008111AACF77CE84A5806284A7A9CFE4FE77
:1029800071CE8DA1827009F46DCE541408F068C127
:1029900040E250E0BE016F5F7F4FC4010E94C01053
:1029A000009709F03FC1D40158960D911D912D91CA
:1029B0003C915B970FA718AB29AB3AAB9C968C91D7
:1029C0009C9786FFB0C090960D911C91F801E15E36
:1029D000FD4F80819181A281B38189A39AA3ABA38A
:1029E000BCA3C12CD12C760149A15AA16BA17CA119
:1029F0009E012F5D3F4FC8010E94270787FD8FC0B2
:102A0000BFEFCB1ADB0AEB0AFB0A8111EDCFF8010D
:102A1000E25DFD4F8081875F04C0CC0CDD1CEE1CA5
:102A2000FF1C8A95D2F7D4019096ED91FC91E95D57
:102A3000FD4F80819181A281B3818C0D9D1DAE1DC2
:102A4000BF1D0097A105B44008F00CCEC4010E9440
:102A50008308882309F406CED40190968D919C9129
:102A600091975896CD90DD90ED90FC905B97B2E0F9
:102A7000CB1AD108E108F108FC01E25DFD4F20818D
:102A800004C0CC0CDD1CEE1CFF1C2A95D2F7895E1D
:102A90009D4FFC0180819181A281B38197018601C4
:102AA000080F191F2A1F3B1F0BAB1CAB2DAB3EABF6
:102AB000C12CD12C7601D40190968D919C91919747
:102AC000FC01E25DFD4F208141E050E060E070E0FC
:102AD00004C0440F551F661F771F2A95D2F7C416EE
:102AE000D506E606F70628F525E04BA95CA96DA9F1
:102AF0007EA94C0D5D1D6E1D7F1D0E948A050097ED
:102B000009F4B0CDFC0100E012E011920150104038
:102B1000E1F71FEFC11AD10AE10AF10ACCCFC12CAB
:102B2000D12C760174CFF401C084D184E284F38483
:102B30007ACF9C962C919C9726FD62C09E962C91F4
:102B40009E9720689E962C93FC01E95DFD4F808145
:102B50009181A281B3819C01AD0160E070E080E0D1
:102B600090E0D4011896AC9018971996BC901997DC
:102B70001A96CC901A971B96DC901B971C96EC909B
:102B80001C971D96FC901D971E960C911E971F96E4
:102B90001C911F970E94CE2518962C931897199672
:102BA0003C9319971A964C931A971B965C931B9714
:102BB0001C966C931C971D967C931D971E968C9368
:102BC0001E971F969C9380819181A281B3819C0165
:102BD000AD0160E070E080E090E0F401A088B18891
:102BE000C288D388E488F588068917890E94CE2593
:102BF000208B318B428B538B648B758B868B978BA1
:102C0000C4010E94140B882309F42CCD0FA518A928
:102C100029A93AA9D40158960D931D932D933C935D
:102C20005B97B3CE809709F01DCD511017C0F4010A
:102C300080819181A281B3818C019D010052110993
:102C4000210931090AA71BA72CA73DA7208D318D8B
:102C5000428D538D2EA33FA348A759A7539495CED9
:102C6000F40186A586FB882780F99FE2D3011D9297
:102C70009A95E9F720A131A1F30131A320A398E2AD
:102C800094A70EA11FA128A539A502A313A324A3CD
:102C900035A30AA51BA52CA53DA506A317A320A710
:102CA00031A782A7F101808191819383828310E013
:102CB00080E2982E91ECA92E20ECD22ECDA0689423
:102CC000C7F835E8B32E0EA50F5F41E2E42E46E5C6
:102CD000F42E141508F05BC041E0612FC3010E947F
:102CE000880ADC01892B09F4BDCC8C9187FDBACC14
:102CF000FD01292D11922A95E9F7111114C0BC92FA
:102D0000F30103A711960C9311971B96FC92EE9278
:102D10001A971F96FC92EE921E975396FC92EE9293
:102D200052971F5FD6CF113091F4DC9211961C930D
:102D30001197F301C6A6F101868113968C93139720
:102D40008085918515969C938E931497EACFAC92CB
:102D5000F10144815581BD016E5F7F4FCD018096A9
:102D6000F101A281B381A417B507D9F29D012F5FAC
:102D70003F4F338322832C91022E000C330BDB0157
:102D80002D933D93BD018A179B0751F7CACFC3010D
:102D90000E94140BF82E9CCD0F931F93CF938C01A0
:102DA000C62F0E94BC0B6C2F6460C8010E94BC0B34
:102DB0006C2F6B7FC8010E94BC0B83EC90E00197E5
:102DC000F1F7CF911F910F910895CF93C82F682FDE
:102DD000607F87E093E00E94CC1680E1C89FB0013D
:102DE000112487E093E0CF910C94CC16CF93DF931E
:102DF000CDB7DEB728970FB6F894DEBF0FBECDBFB4
:102E000098E0EEE0F1E0DE01119601900D929A95C6
:102E1000E1F790911003981708F48FEF90E0880F76
:102E2000991F21E030E02C0F3D1F820F931FFC0102
:102E30008081806828960FB6F894DEBF0FBECDBFA4
:102E4000DF91CF910C94E51681E00E94E5168BE3AB
:102E50009FE10197F1F708950F931F93CF938C0192
:102E6000C62F607F61600E94CC1680E1C89FB001D0
:102E700011246160C8010E94CC1681E090E0CF91DE
:102E80001F910F9108952F923F924F925F926F92F0
:102E90007F928F929F92AF92BF92CF92DF92EF92EA
:102EA000FF920F931F93CF93DF93CDB7DEB7C05838
:102EB000D1090FB6F894DEBF0FBECDBF10925A02F3
:102EC0001092590210925C0210925B020E94520210
:102ED00081E992E0909384028093830282E992E0F8
:102EE000909388028093870210920C0380911003C4
:102EF000823018F098E090930C039091110399237D
:102F000039F0813029F480910C03846080930C03A4
:102F100062E370E080E090E00E94B60160911203ED
:102F200087E093E00E94BC0B68EE73E080E090E0E5
:102F30000E94B60160E387E093E00E94CC160BE4A8
:102F400016E4C8010197F1F760E387E093E00E947F
:102F5000CC16C8010197F1F760E387E093E00E9487
:102F6000CC1683E592E00197F1F760E287E093E009
:102F70000E94CC1680910C0380620E94E51684E0CA
:102F800080930D038CE00E94E5160E94241782E0D6
:102F900080930E0386E00E94E51682E00E94E5160B
:102FA0008BE39FE10197F1F780910D038B7F809375
:102FB0000D0388600E94E5161092120360E087E01E
:102FC00093E00E94BC0B80910D038D7F80930D03D5
:102FD00088600E94E51668EE73E080E090E00E9451
:102FE000B6010E94A30C80910D03982F94609093DA
:102FF0000D038C600E94E5160E94241780E00E9459
:10300000F61666E471E087E093E00E94F20C81E03E
:103010000E94F61667E571E087E093E00E94F20CEB
:1030200064EC79E080E090E00E94B6010E942417F1
:1030300042E1942E57E1852E62E0762E76E0672EEF
:10304000EEE4AE2EE3E0BE2E22242A94322C21019F
:103050001092B5051092B2051092B4051092B80501
:103060008AE08093B30561E00E94600161E0809195
:10307000B3050E943201A2E5A093B0051092B105FC
:103080001FB7F89480911202811127C0EAE8F1E09D
:103090008491EEE9F1E09491E82FF0E0EE0FFF1F4C
:1030A000E459FE4FA591B4918C91982321F461E0ED
:1030B0008AE00E94320161E08AE00E9460018CB5E2
:1030C00080618CBD8CB580648CBD61E08DE00E9418
:1030D000600161E08BE00E946001809112028F5FCD
:1030E000809312021FBF81E08093B2051092B60553
:1030F0008091B505811104C08EEA95E00E942003FD
:1031000061E08091B3050E9432011AE08FEF0E94C6
:1031100019031150D9F760E08091B3050E94320184
:103120001AE020E030E0A90160E08EEA95E00E941C
:10313000AD03082F813089F0115041F481E0809374
:10314000B4058EEA95E00E94490379C00FEF8FEF36
:103150000E9419030150D9F7E4CF2AEA31E040E098
:1031600050E068E08EEA95E00E94AD0382FD0EC05B
:103170007092B80514E00E942E038093B705115099
:10318000D1F78A3A29F06092B405DBCF0093B805F5
:103190008091B805C12CD12CE12C20E4F22E823094
:1031A00019F0C12CD12C76010E94E9018B0100534A
:1031B000184F20E030E0A90167E38EEA95E00E9415
:1031C000AD03A701960169E28EEA95E00E94AD0386
:1031D000882351F00E94E901C801861B970B97FFD5
:1031E000E8CF8092B405ADCF8091B8058230D9F494
:1031F00020E030E0A9016AE38EEA95E00E94AD0389
:10320000882319F09092B4059CCF0E942E03807CF5
:10321000803C19F4F3E0F093B8050E942E030E945D
:103220002E030E942E038EEA95E00E94490380E55A
:103230008093B00581E08093B1051092BD058EEAC0
:1032400095E09093AD058093AC052091B4052111D4
:1032500036C110927B0590937A05809379059093FF
:10326000500380934F0310924E03209255033092E7
:103270005603409257035092580340E050E0BA0181
:103280008EE493E00E948A05009709F418C1FC01BE
:10329000E254FE4F2481222309F411C120812F77AB
:1032A00009F00DC18A539E4FDC01CD90DD90ED9069
:1032B000FC90B701A6018EE493E00E948A058C0180
:1032C000009709F4FCC045E050E068E671E0039621
:1032D0000E94D426892B09F0F2C0F801E459FF4F6F
:1032E0008081893009F0EBC07C9780819181A28137
:1032F000B3818C0D9D1DAE1DBF1D80935D05909308
:103300005E05A0935F05B09360053496808191813E
:10331000A281B3818093610590936205A0936305B8
:10332000B0936405349680819181A281B3818C0D24
:103330009D1DAE1DBF1D8093650590936605A093EE
:103340006705B0936805349680819181A281B3812D
:103350008093690590936A05A0936B05B0936C0503
:10336000349680819181A281B38180936D05909381
:103370006E05A0936F05B09370053D962081209354
:103380007C05275F81E090E0A0E0B0E004C0880FFA
:10339000991FAA1FBB1F2A95D2F78093750590939A
:1033A0007605A0937705B09378050197A109B10937
:1033B0008093710590937205A0937305B093740583
:1033C0001092590510925A0510925B0510925C05F7
:1033D00040E050E0BA018EE493E00E94CD0510E495
:1033E00010937B058DE795E00E94140BEDE7F5E067
:1033F0008FE2DF011D928A95E9F71093A905B0923B
:103400009E05A0929D0581E08093AB05B0921102CC
:10341000A092100262E082E00E9460010E94A30C70
:1034200080E091E00E94AF248093130281E091E05C
:103430000E94AF248093140282E091E00E94AF24A6
:103440008093150283E091E00E94AF2480931602DE
:10345000EAEAF1E08491E6E9F1E00491E2E8F1E0E2
:103460001491111157C08091130290911402A091F0
:103470001502B09116020196A11DB11D8093130291
:1034800090931402A0931502B093160293E1E92ED3
:1034900092E0F92E00E011E0F701D1907F01C80120
:1034A0000E94AF24D81621F06D2DC8010E94B724C8
:1034B0000F5F1F4F0430F1E01F0771F73AC080E043
:1034C0000E94F6166EE671E087E093E00E94F20C2F
:1034D00081E00E94F6166CE771E087E093E00E94BD
:1034E000F20C80911203883071F41092120360E0A4
:1034F00087E093E00E94BC0B64EF71E080E090E015
:103500000E94B601A5CD0E94A30C6CED75E080E091
:1035100090E0F6CF81110E940901E12FF0E0EE0F5B
:10352000FF1FEE59FE4FA591B491EC91E02309F4F1
:103530009ACF80E00E94F6166BE871E087E093E096
:103540000E94F20C81E00E94F61640911302509105
:10355000140260911502709116027E018CE3E80E50
:10356000F11CC7010E94B70D1A8219821C821B82AE
:103570001E821D8266E971E0CE0101960E94EF0D68
:10358000B701CE0101960E94830D6DE971E00E94A2
:103590006D0D0E942202CE0101960E94F90DC70115
:1035A0000E94F90D60ED77E080E090E00E94B601A6
:1035B0000E9424170E942417409113025091140274
:1035C0006091150270911602CE0185589F4F0E949E
:1035D000B70DE7961FAE1EAEE797E9961FAE1EAE7B
:1035E000E997EB961FAE1EAEEB9766E971E0CE0150
:1035F0008B589F4F0E94EF0DBE0165587F4FCE0143
:103600008B589F4F0E94830D6DE971E00E946D0DF4
:10361000DC010D911C911C821B8288EE93E0A0E0DE
:10362000B0E08D839E83AF83B88719AE1AAE1BAE10
:1036300088E391E09A838983A9961FAEA997AA96F9
:103640001FAEAA97AB961FAEAB978091A905807568
:10365000F1F0F80180816DE775E08F3209F074C0F8
:103660008F0121912F32E1F380919D0590919E056C
:10367000211158C0FE013D962FE2DF011D922A95CF
:10368000E9F720E429AF9EA78DA781E08BAF8B815E
:103690009C8190931603809315038D819E81AF8149
:1036A000B8858093170390931803A0931903B093E0
:1036B0001A0389859A85AB85BC8580931B039093FB
:1036C0001C03A0931D03B0931E038FE2FE013D96E1
:1036D000AFE1B3E001900D928A95E1F7CE018B58EE
:1036E0009F4F0E94F90DCE0185589F4F0E94F90D02
:1036F000C058DF4F0FB6F894DEBF0FBECDBFDF91CD
:10370000CF911F910F91FF90EF90DF90CF90BF90DE
:10371000AF909F908F907F906F905F904F903F9071
:103720002F9008952FE2F70111922A95E9F720E4EE
:10373000A9962FAFA9976E969FAF8EAF6E9781E037
:10374000AB968FAFAB97B701F8019F012F5F3F4F4B
:103750008081803299F1AD96FFAFEEAFAD97E196E3
:10376000FFAFEEAFE197AF018A01DA018D919D01C4
:10377000882371F18F3221F180320CF488CF982F99
:10378000977F923209F483CF8A3309F480CF982F40
:103790009F7B9C3309F47BCF92EC980F923008F416
:1037A00076CF8C3509F473CF8E3231F0803221F030
:1037B000E196BFAFAEAFE197A901D6CFF901C5CF72
:1037C0008A01DA018D91AD018032D1F38F32C1F3DC
:1037D000AF96FFAFEEAFAF97E1968EAD9FADE1979D
:1037E00050E040E0AF96AEADBFADAF97A817B907B8
:1037F000C1F09D012F5F3F4FAF963FAF2EAFAF9708
:103800003C912FE9230F2A3108F4305240FB5795A1
:10381000479557F9430F511D40FB5795479557F969
:10382000E1CF8E1B9F0BE3969FAF8EAFE397E5969C
:103830005FAF4EAFE59701978F3F910508F027CF17
:10384000F80180818823D9F020E0AE0145595F4F0F
:10385000CE010D960E940213882309F418CF8FE23F
:10386000FE013D96DE01DC9601900D928A95E1F70E
:10387000CE010D960E94140B19AE1BAE64CF26E14B
:10388000AE0145595F4FCE010D960E940213FFCE47
:103890001F920F920FB60F9211242F933F938F9385
:1038A0009F93AF93BF938091F3029091F402A09104
:1038B000F502B091F6023091F20223E0230F2D378A
:1038C00058F50196A11DB11D2093F2028093F302D9
:1038D0009093F402A093F502B093F6028091F70260
:1038E0009091F802A091F902B091FA020196A11DFF
:1038F000B11D8093F7029093F802A093F902B09360
:10390000FA02BF91AF919F918F913F912F910F90AC
:103910000FBE0F901F90189526E8230F0296A11D49
:10392000B11DD2CF1F920F920FB60F9211242F9379
:103930003F934F935F936F937F938F939F93AF9337
:10394000BF93EF93FF938091B900887F803609F48D
:103950004AC0F0F5883209F4A7C018F5803109F49F
:103960009BC0B8F4882309F4F9C0883009F494C0E6
:10397000FF91EF91BF91AF919F918F917F916F9147
:103980005F914F913F912F910F900FBE0F901F901D
:103990001895883109F488C0803251F78093AA02C3
:1039A00014C0803409F49DC040F48033B9F38833E7
:1039B000F9F68093AA0285ECB0C0803509F485C081
:1039C000883509F496C0883499F60E94010ED0CF4C
:1039D000883909F48CC038F5883729F050F48836D6
:1039E00011F0803729F683E08093AB021092A90290
:1039F00057C0883809F47BC0803919F0803809F045
:103A0000B7CF8091A902803208F071C0E091A9027D
:103A100081E08E0F8093A9028091BB00F0E0E75710
:103A2000FD4F80833DC0803B39F0E0F4803A09F4DB
:103A300079C0883A09F09CCF84E08093AB02109261
:103A4000860210928502E0918302F091840209952A
:103A50008091850281110FC081E0809385021092D0
:103A6000630209C0803C09F4A6CF883C09F4A3CFC7
:103A7000883B09F07DCFE091860281E08E0F809334
:103A80008602F0E0ED59FD4F80818093BB0090915C
:103A900086028091850229C08091D0028093BB006C
:103AA00085EC8093BC0064CF9091CF028091CE02D0
:103AB000981758F5E091CF0281E08E0F8093CF02E6
:103AC000F0E0E255FD4F8081E9CFE091CF0281E047
:103AD0008E0F8093CF028091BB00F0E0E255FD4F46
:103AE00080839091CF028091CE029817C8F285E82A
:103AF000D8CFE091CF0281E08E0F8093CF028091EA
:103B0000BB00F0E0E255FD4F80838091AD02811152
:103B10005CCF81E08093AC0284EA8093BC00109279
:103B2000AB0226CF85EC8093BC001092AB02809153
:103B3000A902803230F4E091A902F0E0E757FD4F8E
:103B400010826091A90270E0E0918702F0918802F2
:103B500089E892E009951092A9020ACF1092AA0270
:103B600034CFEBEFF2E01382128288EE93E0A0E014
:103B7000B0E084839583A683B7832AE131E0318363
:103B8000208310927B051092A9051092AA0510922D
:103B9000AB051092AD051092AC0520E52093B00561
:103BA0001092B1051092B2052AE22093B40510924A
:103BB000B8051092BD05E3E1F3E01382128284831D
:103BC0009583A683B78310AE11AE12AE88E391E061
:103BD00091838083E7E0F3E0138212828CE291E02C
:103BE0009183808387E2848382E0808780E181877C
:103BF000128688E083870895CF93DF93CDB7DEB731
:103C0000C554D1090FB6F894DEBF0FBECDBF78946E
:103C100084B5826084BD84B5816084BD85B58260D1
:103C200085BD85B5816085BD80916E008160809382
:103C30006E001092810080918100826080938100EB
:103C400080918100816080938100809180008160FB
:103C5000809380008091B10084608093B100809156
:103C6000B00081608093B00080917A00846080937E
:103C70007A0080917A00826080937A0080917A0045
:103C8000816080937A0080917A00806880937A00C6
:103C90001092C1000E94431720E4B22ECE0101967B
:103CA0007C0130E0C32E30E0D32E0E94A30CB092F2
:103CB0007C0080917A00806480937A0080917A0001
:103CC00086FDFCCF6091780070917900072E000C82
:103CD000880B990B611571058105910511F00E9402
:103CE0007F2180914B0390E2892E912C811139C064
:103CF0000E94F61663EA71E087E093E00E94F20CFE
:103D000081E00E94F61663EB71E087E093E00E9489
:103D1000F20C0AE010E0809112038830B1F00E94AA
:103D2000A30C6CED75E080E090E00E94B6010150BC
:103D3000110989F70E94A30C0E944317C114D104F2
:103D400009F4B3CF0E940000B0CF1092120360E0DC
:103D500087E093E00E94BC0B6DE770E080E090E0AC
:103D6000E4CF8FE3E1EDF1E0D70101900D928A9568
:103D7000E1F7F70101900020E9F731978F010E1963
:103D80001F0981ED682E82E0782E1801512C412CFC
:103D900060E070E0CB010115110531F00E94302187
:103DA000A20191010E94C5246E0D7F1DFB0180813F
:103DB000F30181933F01F1EF6F16F2E07F0641F7C7
:103DC00061ED72E083E193E00E94F20C81E0881AD9
:103DD000910839F642E050E06EEB71E08FE193E03C
:103DE0000E94390E80E00E94F61620912F03309138
:103DF000300340913103509132036091330370914D
:103E0000340380913503909136030E945F2520E0B2
:103E100030E040E855E30E94F12322961FAE1EAE2B
:103E2000229724961FAE1EAE249726961FAE1EAE76
:103E30002697870121E043E00E94A11F009709F423
:103E40007AC0FC0101900020E9F73197AF01481BCF
:103E5000590BBC01CE01805C9F4F0E94960D1A82C7
:103E600019821C821B821E821D8261EC71E0C701D7
:103E70000E94EF0DBE01605C7F4FC7010E94830D61
:103E800067EC71E00E946D0D0E942202C7010E9442
:103E9000F90DCE01805C9F4F0E94F90D81E00E94D8
:103EA000F61640910001509101016091020170915C
:103EB0000301C7010E94B70D22961FAE1EAE2297C6
:103EC00024961FAE1EAE249726961FAE1EAE2697D2
:103ED0006BEC71E0CE01805C9F4F0E94EF0DB7014B
:103EE000CE01805C9F4F0E94830D0E942202CE0172
:103EF000805C9F4F0E94F90DC7010E94F90D8FE170
:103F000093E00E94140B10924B0310924D0380918A
:103F1000000190910101A0910201B091030101966D
:103F2000A11DB11D8093000190930101A093020196
:103F3000B093030103CFCE01805C9F4F0E945B0DC5
:103F40008ECFEF920F931F93CF93DF93E80134E06E
:103F500047FD34E1042E000C550B57FF03C051956B
:103F600041955109E32E022F242FAE010E94AA2170
:103F7000CE01DF91CF911F910F91EF9008950F9394
:103F80001F93CF93DF938230910510F482E090E08D
:103F9000E091C005F091C10530E020E0B0E0A0E084
:103FA000309799F42115310509F44AC0281B390BC3
:103FB00024303105D8F58A819B816115710589F11D
:103FC000FB0193838283FE0111C0408151810281F4
:103FD000138148175907E0F04817590799F41097CB
:103FE00061F012960C93129713961C933296CF01A0
:103FF000DF91CF911F910F9108950093C005109309
:10400000C105F4CF2115310551F04217530738F09F
:10401000A901DB019A01BD01DF01F801C1CFEF0168
:10402000F9CF9093C1058093C005CDCFFE01E20F7B
:10403000F31F819391932250310939832883D7CF7D
:104040002091BE053091BF05232B41F4209106013C
:10405000309107013093BF052093BE0520910401E4
:10406000309105012115310541F42DB73EB740913E
:10407000080150910901241B350BE091BE05F09118
:10408000BF05E217F307A0F42E1B3F0B28173907D3
:1040900078F0AC014E5F5F4F2417350748F04E0FA4
:1040A0005F1F5093BF054093BE05819391939FCFAF
:1040B000F0E0E0E09CCFCF93DF930097E9F0FC01C4
:1040C000329713821282A091C005B091C105ED0113
:1040D00030E020E01097A1F420813181820F931FFE
:1040E0002091BE053091BF052817390709F061C03E
:1040F000F093BF05E093BE05DF91CF910895EA01EB
:10410000CE17DF07E8F54A815B819E014115510515
:10411000B1F7E901FB83EA8349915991C40FD51F97
:10412000EC17FD0761F4808191810296840F951F41
:10413000E90199838883828193819B838A83F0E05C
:10414000E0E012968D919C9113970097B9F52D910F
:104150003C911197CD010296820F931F2091BE05CD
:104160003091BF052817390739F6309751F510926D
:10417000C1051092C005B093BF05A093BE05BCCF8A
:10418000D383C28340815181840F951FC817D907FB
:1041900061F44E5F5F4F88819981480F591F5183A9
:1041A00040838A819B81938382832115310509F0A5
:1041B000B0CFF093C105E093C0059ECFFD01DC01B7
:1041C000C0CF13821282D7CF8F929F92AF92BF92AD
:1041D000CF92DF92EF92FF92CF93DF93EC01688151
:1041E00079818A819B81611571058105910521F491
:1041F00064E279ED8BE597E02DE133EF41E050E0AB
:104200000E94C52449015A019B01AC01A7EAB1E40F
:104210000E94E4246B017C01ACEEB4EFA501940193
:104220000E94F224C60ED71EE81EF91EF7FE06C035
:1042300081E0C81AD108E10880E8F80AC882D9826A
:10424000EA82FB82C701B6019F77DF91CF91FF9091
:10425000EF90DF90CF90BF90AF909F908F90089598
:104260008F929F92AF92BF92CF92DF92EF92FF9286
:1042700060910A0170910B0180910C0190910D01E8
:10428000611571058105910521F464E279ED8BE5F5
:1042900097E02DE133EF41E050E00E94C524490151
:1042A0005A019B01AC01A7EAB1E40E94E4246B012E
:1042B0007C01ACEEB4EFA50194010E94F224C60E7D
:1042C000D71EE81EF91EF7FE06C081E0C81AD10805
:1042D000E10880E8F80AC0920A01D0920B01E0924E
:1042E0000C01F0920D01C701B6019F77FF90EF908E
:1042F000DF90CF90BF90AF909F908F900895609384
:104300000A0170930B0180930C0190930D010895A5
:10431000BB27FA01A62F6217710581059105330BA2
:1043200030FB66F0AA27660F771F881F991FAA1F08
:10433000A21710F0A21B63953850A9F7A05DAA330D
:1043400008F0A95DA19336F7B111B1931082CA01AB
:104350000C94E123A9E0B0E0E0EBF1E20C94FD2441
:104360006A01F22EB02E102FFBE3AF2EA01608F438
:104370001BE31F5F012F27E0AE014F5F5F4F0E94DD
:104380000923BC018981982F9970913009F43FC0AD
:104390009BE2E1FC04C09E2D9170E0FC3AC05E2DD2
:1043A0005071E82FE87083FF46C084E0911101C08E
:1043B00083E0EF2DE81B8F1508F0E0E0D6018E2F8B
:1043C00020E2552351F1992329F0D6019C93C6018F
:1043D00001966C0196012D5F3F4FE2FE24C08EE4F2
:1043E000D6018C9391E411969C93119712968C931D
:1043F000D9018E2F90E281111BC0E20FF32FF11D26
:1044000010828EEF9FEF2996ECE00C9419259DE227
:10441000C6CF90E2C4CF2D9381508111FCCFCE0E38
:10442000D11CE0E0D0CF8EE6D6018C9391E6DBCFB5
:104430009D938150E0CF482F447082FF3DC084E0BF
:10444000911101C083E08F1510F4EF2DE81BD60108
:104450008E2F20E2552309F1992329F0D6019C9350
:10446000C60101966C0196012D5F3F4FE2FE1BC015
:1044700089E4D6018C938EE411968C93119786E48F
:1044800012968C93D9018E2F90E2882309F4B5CF30
:104490009D938150FACF2D9381508111FCCFCE0E88
:1044A000D11CE0E0D9CF89E6D6018C938EE6119637
:1044B0008C93119786E6E4CF9B0177FF02C030E032
:1044C00020E0A1E0B0E0911102C0B0E0A0E0F9016D
:1044D0003196AE0FBF1F8B2C912CBB2009F461C00D
:1044E0005401EFEFAE1ABE0AAA0DBB1DFA161B0649
:1044F00019F014F04F2D4A1B511188C0E3FC59C02C
:104500007601A42FB0E2A1114FC0C40ED11C992393
:1045100009F45BC040E0D6011196F60190836D016D
:10452000552309F448C0012F060F9A81582F507166
:1045300084FF03C0913309F4015010160CF047C0FA
:10454000093008F008E0EEE2FE2E5B01A01AB10887
:1045500085019194819491082F3F320729F4D60167
:10456000FC92F60131966F016217730794F10217FE
:1045700013077CF5DB01A21BB30BAA24A394B12C77
:10458000AC0EBD1EAA0DBB1D11968C912150310998
:10459000D601119628153905F4F0F60180836D01D6
:1045A000DBCFB12CA12CA0CFF701B1937F01A1509B
:1045B000AACF9111B0CFD601942F50E302C05D93E2
:1045C00091509111FCCFC40ED11C40E0ACCF01E062
:1045D000BACF80E3DBCF6217730731F4963388F4E8
:1045E000953311F4552369F0F6018083FD01842F82
:1045F00090E2811108C0A40FB11D1C9290E080E0F0
:1046000002CF81E3F1CF91938150F3CF911183CF0A
:104610008ACF283008F027E03327DA01990F311DBF
:1046200087FD916000966105710539F432602E5F57
:104630003D9330E32A95E1F708959F3F30F08038AD
:104640007105610509F03C5F3C5F3D93913008F0D6
:104650008068911DDF93CF931F930F93FF92EF928A
:10466000192F987F9695E92F96959695E90FFF2734
:10467000EE53FF4F99273327EE24FF24A701E701CC
:1046800005900894079428F4360FE71EF81E491F7A
:10469000511D660F771F881F991F0694A1F705907B
:1046A000079428F4E70EF81E491F561FC11D770F07
:1046B000881F991F661F0694A1F70590079428F498
:1046C000F80E491F561FC71FD11D880F991F661F5F
:1046D000771F0694A1F70590079420F4490F561F01
:1046E000C71FD81F990F661F771F881F0694A9F749
:1046F00084911095177041F0D695C79557954795B9
:10470000F794E7941A95C1F7E8E6F0E068941590FD
:10471000159135916591959105907FE27395E1181A
:10472000F10A430B560BC90BD009C0F7E10CF11E7F
:10473000431F561FC91FD01D7EF4703311F48A9594
:10474000E6CFE894015030F0080F0AF40027021772
:1047500008F4202F2395022F7A3328F079E37D93F4
:104760002A95E9F710C07D932A9589F606949795C6
:104770006795379517951794E118F10A430B560B77
:10478000C90BD00998F023957E9173957A3308F080
:1047900070E37C932013B8F77E9170617D9330F0C5
:1047A000839571E37D9370E32A95E1F71124EF90EF
:1047B000FF900F911F91CF91DF91992787FD9095E1
:1047C0000895DC01FC01672F71917723E1F732979F
:1047D00004C07C916D9370836291AE17BF07C8F3DC
:1047E00008950E9404240C9475240E94672438F0D4
:1047F0000E946E2420F0952311F00C945E240C94FA
:10480000642411240C94A9240E94862470F3959F9B
:10481000C1F3950F50E0551F629FF001729FBB27B7
:10482000F00DB11D639FAA27F00DB11DAA1F649F53
:104830006627B00DA11D661F829F2227B00DA11D06
:10484000621F739FB00DA11D621F839FA00D611D8C
:10485000221F749F3327A00D611D231F849F600DAD
:10486000211D822F762F6A2F11249F5750409AF0D6
:10487000F1F088234AF0EE0FFF1FBB1F661F771F62
:10488000881F91505040A9F79E3F510580F00C942D
:104890005E240C94A9245F3FE4F3983ED4F38695FC
:1048A00077956795B795F795E7959F5FC1F7FE2BCD
:1048B000880F911D9695879597F9089597F99F67A9
:1048C00080E870E060E008959FEF80EC0895002498
:1048D0000A941616170618060906089500240A9465
:1048E00012161306140605060895092E0394000CEB
:1048F00011F4882352F0BB0F40F4BF2B11F460FF7A
:1049000004C06F5F7F4F8F4F9F4F089557FD9058A2
:10491000440F551F59F05F3F71F04795880F97FB83
:10492000991F61F09F3F79F087950895121613063D
:104930001406551FF2CF4695F1DF08C0161617066C
:104940001806991FF1CF86957105610508940895A1
:10495000E894BB2766277727CB0197F90895F99943
:10496000FECF92BD81BDF89A992780B50895262F74
:10497000F999FECF1FBA92BD81BD20BD0FB6F89444
:10498000FA9AF99A0FBE01960895052E97FB1EF428
:1049900000940E94DC2457FD07D00E942E2507FCBE
:1049A00003D04EF40C94DC2450954095309521951D
:1049B0003F4F4F4F5F4F089590958095709561954B
:1049C0007F4F8F4F9F4F08950E945025A59F900DB8
:1049D000B49F900DA49F800D911D11240895B7FFE1
:1049E0000C94E4240E94E424821B930B08952F92DC
:1049F0003F924F925F926F927F928F929F92AF926F
:104A0000BF92CF92DF92EF92FF920F931F93CF93BB
:104A1000DF93CDB7DEB7CA1BDB0B0FB6F894DEBF52
:104A20000FBECDBF09942A88398848885F846E8478
:104A30007D848C849B84AA84B984C884DF80EE80C2
:104A4000FD800C811B81AA81B981CE0FD11D0FB6CB
:104A5000F894DEBF0FBECDBFED010895A1E21A2E7E
:104A6000AA1BBB1BFD010DC0AA1FBB1FEE1FFF1F12
:104A7000A217B307E407F50720F0A21BB30BE40B62
:104A8000F50B661F771F881F991F1A9469F76095A9
:104A90007095809590959B01AC01BD01CF01089563
:104AA000A29FB001B39FC001A39F700D811D11246F
:104AB000911DB29F700D811D1124911D0895E894E0
:104AC000F92F96EBFF2381F0121613061406440B00
:104AD0009395F69587957795679557954040FF2371
:104AE000B9F71BC099270895882351F49850D2F73D
:104AF000872B762F652F542F432F322F20E0B1F3D1
:104B0000121613061406440B88233AF09A95440FA4
:104B1000551F661F771F881FCAF755234AF4440F95
:104B2000551F11F460FF04C06F5F7F4F8F4F9F4F81
:104B3000880F9695879597F90895AA1BBB1B51E19D
:104B400007C0AA1FBB1FA617B70710F0A61BB70BFD
:104B5000881F991F5A95A9F780959095BC01CD01A2
:104B6000089597FD1094002E083098F00850232FD8
:104B7000342F452F562F672F782F892F912DF4CF63
:104B80001594979587957795679557954795379598
:104B900027950A95AAF71124002D08952A0D3B1D8B
:104BA0004C1D5D1D6E1D7F1D801F911F08950024EB
:104BB000A7FD00942A0F301D401D501D601D701D63
:104BC000801D901D08952A193B094C095D096E0945
:104BD0007F09800B910B08952A153B054C055D0557
:104BE0006E057F058007910708950024A7FD0094B6
:104BF0002A173005400550056005700580059005B1
:104C00000895EE0FFF1F0590F491E02D0994B0E098
:104C1000A0E0EDE0F6E20C94F9248C01009751F449
:104C2000CB010E94BF1F8C01C801CDB7DEB7E0E108
:104C30000C941525FC01E60FF71F9C012250310949
:104C4000E217F30708F49DC0D901CD91DC911197CB
:104C5000C617D70798F0C530D10530F3CE010497B9
:104C60008617970708F3C61BD70B2297C193D193DA
:104C70006D937C93CF010E945B20D6CF5B01AC1A71
:104C8000BD0A4C018C0E9D1EA091C005B091C105BE
:104C9000512C412CF12CE12C109731F58091BE055F
:104CA0009091BF058815990509F05CC04616570616
:104CB00008F058C08091040190910501009741F4DB
:104CC0008DB79EB74091080150910901841B950B47
:104CD000E817F90708F055C0F093BF05E093BE054B
:104CE000F90171836083A0CF8D919C9111971296E9
:104CF0006C90129713967C901397A815B90559F5E7
:104D00006C0142E0C40ED11CCA14DB0420F1AC01DA
:104D10004A195B09DA011296159780F06282738254
:104D200051834083D9016D937C93E114F10471F0B8
:104D3000D7011396FC93EE93129776CF22968C0FA1
:104D40009D1FF90191838083F301EFCFF093C1059B
:104D5000E093C00569CF4816590608F42C017D017F
:104D6000D3019ACFCB010E94BF1F7C01009749F06D
:104D7000AE01B8010E94C426C8010E945B208701D1
:104D800053CF10E000E050CFFB01DC0102C00190E6
:104D90000D9241505040D8F70895FB01DC0101907D
:104DA0000D920020E1F70895FB01DC0141505040D5
:104DB00030F08D910190801919F40020B9F7881B0B
:084DC000990B0895F894FFCF50
:104DC800010000000000C205800001000000000092
:104DD80040001400540000000000EA02BD02EF0C7D
:104DE8009302B602A3029402000000002C17F501FA
:104DF800EF0CAB0C00000000AE10AB10EF0CEC0C8D
:104E0800AC0CEA129B1241726475696E6F20496E90
:104E1800697469616C2E004461746120436F6C6C25
:104E28006563746F722E2E004558464154004572D2
:104E3800726F723A20506C656173650043686563F0
:104E48006B2053442043617264210046696C6520DD
:104E58004E616D653A002F444154415F002E444134
:104E68005441004572726F723A2066696C65206E13
:104E78006F740043726561746564212121000D0A15
:104E880000462E533A2000204D4200572E4C3A201F
:104E9800004142434445464748494A4B4C4D4E4FD2
:104EA800505152535455565758595A616263646564
:104EB800666768696A6B6C6D6E6F70717273747512
:104EC800767778797A303132333435363738390075
:00000001FF
